:020000040000FA
:0400000058EF00F0C5
:100008005B82FACF01F0FBCF02F0D9CF03F0DACF51
:1000180004F0F2AC12EF00F014EF00F04EEF00F035
:100028009DA819EF00F01BEF00F031EF00F09EA83B
:1000380020EF00F022EF00F031EF00F002D82FEFB0
:1000480000F00500FA6E0001EB51FD6EEC51FE6EFA
:10005800FF6AFA5012004EEF00F09DAA36EF00F04A
:1000680038EF00F04EEF00F09EAA3DEF00F03FEFB2
:1000780000F04EEF00F002D84CEF00F00500FA6EE9
:100088000001E951FD6EEA51FE6EFF6AFA50120056
:100098004EEF00F004C0DAFF03C0D9FF02C0FBFF37
:0C00A80001C0FAFF5B92110053EF12F050
:10100000009A2572256225461AC61B8E25161E24B7
:10101000261C2614260C260426FC25F42582256091
:101020002067583D2025640D0A0067593D2025643E
:0D1030000D0A00675A3D2025640D0A0000DE
:10103E0024C03CF025C03DF026C03EF027C03FF056
:10104E0028C040F029C041F02AC042F02BC043F026
:10105E0043BE34EF08F037EF08F0010E38EF08F01A
:10106E00000E3A6E3B6A3A503B10D8B441EF08F08E
:10107E0043EF08F053EF08F0431E421E411E401E80
:10108E003F1E3E1E3D1E3C6C000E3D223E223F2268
:10109E0040224122422243220001A1BF59EF08F013
:1010AE005BEF08F05CEF08F0A293A1BF69EF08F0C8
:1010BE00A15106E1A005D8B067EF08F069EF08F07E
:1010CE006FEF08F0000E376E010E366E73EF08F0FC
:1010DE00A0C036F0A1C037F09EC038F09FC039F0E6
:1010EE003A503B10D8A47EEF08F080EF08F087EF5F
:1010FE0008F0A2A585EF08F087EF08F08AEF08F058
:10110E003806D8A03906000E456E1F0E446E000E2E
:10111E00C46F0EEF09F04406D8A04506A50E442470
:10112E00D96E000E4520DA6E3CC005F03DC006F0CB
:10113E003EC007F03FC008F040C009F041C00AF0C1
:10114E0042C00BF043C00CF00A0E0D6E000E0E6E78
:10115E00000E0F6E000E106E000E116E000E126E4F
:10116E00000E136E000E146E0EEC0CF005C02CF07B
:10117E0006C02DF007C02EF008C02FF009C030F0C9
:10118E000AC031F00BC032F00CC033F02CC017F097
:10119E002EC018F026EC11F01750300FDF6E360609
:1011AE00D8A037063806D8A039063CC005F03DC099
:1011BE0006F03EC007F03FC008F040C009F041C045
:1011CE000AF042C00BF043C00CF00A0E0D6E000E7A
:1011DE000E6E000E0F6E000E106E000E116E000ED3
:1011EE00126E000E136E000E146E4AEC0BF005C05C
:1011FE003CF006C03DF007C03EF008C03FF009C00D
:10120E0040F00AC041F00BC042F00CC043F045BEA6
:10121E0019EF09F0455008E14404D8A019EF09F080
:10122E001BEF09F04CEF09F03C503D103E103F1003
:10123E004010411042104310D8A428EF09F02AEFB5
:10124E0009F092EF08F037BE37EF09F0375006E19C
:10125E003604D8B035EF09F037EF09F092EF08F009
:10126E0039BE42EF09F0395008E13804D8A042EFF8
:10127E0009F044EF09F04CEF09F00001A2B34AEF78
:10128E0009F04CEF09F092EF08F03A503B10D8A459
:10129E0053EF09F055EF09F05DEF09F00001A2A53B
:1012AE005BEF09F05DEF09F07BEF09F04406D8A083
:1012BE0045063A503B10D8A467EF09F069EF09F0E4
:1012CE006FEF09F0000E356E2B0E346E73EF09F0D2
:1012DE00000E356E2D0E346EA50E4424D96E000E02
:1012EE004520DA6E34C0DFFF22C017F023C018F09D
:1012FE00A50E4424196E000E45201A6E38C01BF040
:10130E0039C01CF0C0EC0CF017C022F018C023F04E
:10131E00120048C0D9FF49C0DAFFDECFF6FFDDCF9D
:10132E00F7FFF86A0800F550250AD8A4A1EF09F0D6
:10133E00A3EF09F052EF0AF048C0D9FF49C0DAFF17
:10134E00DE2A000EDD22000E00019F6F000E9E6F42
:10135E009EC0A2F09FC0A3F0A069A16948C0D9FFAA
:10136E0049C0DAFFDECFF6FFDDCFF7FFF86A0800DF
:10137E00F550640AD8B4C6EF09F0C8EF09F0DBEFF8
:10138E0009F048C0D9FF49C0DAFFDECFF6FFDDCF46
:10139E00F7FFF86A0800F550690AD8A4D9EF09F0EA
:1013AE00DBEF09F01BEF0AF048C0D9FF49C0DAFFA6
:1013BE00DE2A000EDD224AC0D9FF4BC0DAFFDFCF96
:1013CE004CF0020EDE26DFCF4DF0000EDD224CC0BB
:1013DE00D9FF4DC0DAFFDECF4EF0DDCF4FF0000E5D
:1013EE004FBEFF0E506E516E526E536E546E556E52
:1013FE0046C022F047C023F04EC024F04FC025F067
:10140E0050C026F051C027F052C028F053C029F02A
:10141E0054C02AF055C02BF01FEC08F022C046F045
:10142E0023C047F06EEF0AF048C0D9FF49C0DAFF7B
:10143E00DECFF6FFDDCFF7FFF86A0800F550250A7C
:10144E00D8A42CEF0AF02EEF0AF045EF0AF048C0B0
:10145E00D9FF49C0DAFFDE2A000EDD22000E086E2B
:10146E00250E076E46C009F047C00AF036EC0EF0A6
:10147E00000E476E010E466E6EEF0AF048C0D9FFA1
:10148E0049C0DAFFDE2A000EDD22000E476E000E86
:10149E00466E6EEF0AF048C0D9FF49C0DAFFDECFC4
:1014AE00F6FFDDCFF7FFF86A0800F550076E086A01
:1014BE0046C009F047C00AF036EC0EF048C0D9FF1E
:1014CE0049C0DAFFDE2A000EDD223FEF0AF01200DD
:1014DE008AEC12F0F28EF28C190E166E070E176E43
:1014EE00690EF9EC0FF06B0E166E010E176E690E8B
:1014FE00F9EC0FF01A0E166E000E176E690EF9EC5F
:10150E000FF01B0E166E180E176E690EF9EC0FF01B
:10151E00380E166E010E176E690EF9EC0FF0190EDD
:10152E00166E070E176E690EF9EC0FF06B0E166E37
:10153E00010E176E690EF9EC0FF01A0E166E000EF4
:10154E00176E690EF9EC0FF01B0E166E180E176E55
:10155E00690EF9EC0FF0380E166E010E176E690E4D
:10156E00F9EC0FF03B0E166E690EC8EC0EF016C0BD
:10157E00D7F017C0D8F03D0E166E690EC8EC0EF0FF
:10158E0016C0D9F017C0DAF03F0E166E690EC8EC11
:10159E000EF016C0DBF017C0DCF0430E166E690EAF
:1015AE00C8EC0EF016C0DDF017C0DEF0450E166E5C
:1015BE00690EC8EC0EF016C0DFF017C0E0F0470E53
:1015CE00166E690EC8EC0EF016C0E1F017C0E2F010
:1015DE00220E0001CD6F100ECE6FD7C0CFF0D8C047
:1015EE00D0F01CEC12F02B0E0001CD6F100ECE6F52
:1015FE00D9C0CFF0DAC0D0F01CEC12F0340E0001DE
:10160E00CD6F100ECE6FDBC0CFF0DCC0D0F01CEC77
:10161E0012F0210E0001CD6F100ECE6FDDC0CFF097
:10162E00DEC0D0F01CEC12F02A0E0001CD6F100EB1
:10163E00CE6FDFC0CFF0E0C0D0F01CEC12F0330E56
:10164E000001CD6F100ECE6FE1C0CFF0E2C0D0F032
:10165E001CEC12F0270E0001CD6F100ECE6F1CEC9D
:10166E0012F0060E0001D66F130ED56FAD0EE82EDA
:10167E00FED7D52FFCD7D62FFAD700F000F096EF75
:10168E000AF058EF00F0000E166E14BE53EF0BF07A
:10169E0051EF0BF065EF0BF0141E131E121E111EF0
:1016AE00101E0F1E0E1E0D6C000E0E220F2210228B
:1016BE001122122213221422010E166E0CBE6CEF92
:1016CE000BF06AEF0BF07EEF0BF00C1E0B1E0A1EDA
:1016DE00091E081E071E061E056C000E0622072296
:1016EE00082209220A220B220C22010E161A20EEC3
:1016FE0017F0070EDE6AE806FDE20D500E100F1011
:10170E0010101110121013101410D8B491EF0BF01A
:10171E0093EF0BF0E5EF0BF0010E156EA1EF0BF052
:10172E00D8900D360E360F36103611361236133659
:10173E001436152A14AEA6EF0BF0A8EF0BF097EFA8
:10174E000BF0D8901736183619361A361B361C364B
:10175E001D361E360D50055C0E5006580F5007589C
:10176E00105008581150095812500A5813500B585F
:10177E0014500C58D8A0C6EF0BF0C8EF0BF0D9EFF1
:10178E000BF00D50055E0E50065A0F50075A1050B2
:10179E00085A1150095A12500A5A13500B5A145023
:1017AE000C5A1780D8901432133212321132103272
:1017BE000F320E320D32152EA8EF0BF01650D8B494
:1017CE00EBEF0BF0EDEF0BF0FDEF0BF01E1E1D1E01
:1017DE001C1E1B1E1A1E191E181E176C000E182218
:1017EE0019221A221B221C221D221E2217C005F0AE
:1017FE0018C006F019C007F01AC008F01BC009F097
:10180E001CC00AF01DC00BF01EC00CF01200000E22
:10181E00166E0CBE17EF0CF015EF0CF029EF0CF056
:10182E000C1E0B1E0A1E091E081E071E061E056C28
:10183E00000E06220722082209220A220B220C225F
:10184E00010E166E14BE30EF0CF02EEF0CF040EFC2
:10185E000CF0141E131E121E111E101E0F1E0E1E35
:10186E000D6C000E0E220F221022112212221322B4
:10187E0014220D500E100F10101011101210131004
:10188E001410D8B44DEF0CF04FEF0CF097EF0CF0A6
:10189E00010E156E5DEF0CF0D8900D360E360F362C
:1018AE0010361136123613361436152A14AE62EF70
:1018BE000CF064EF0CF053EF0CF00D50055C0E5075
:1018CE0006580F500758105008581150095812500A
:1018DE000A5813500B5814500C58D8A079EF0CF02E
:1018EE007BEF0CF08BEF0CF00D50055E0E50065A90
:1018FE000F50075A1050085A1150095A12500A5ACE
:10190E0013500B5A14500C5AD89014321332123200
:10191E00113210320F320E320D32152E64EF0CF0E2
:10192E001650D8B49DEF0CF09FEF0CF0AFEF0CF00B
:10193E000C1E0B1E0A1E091E081E071E061E056C17
:10194E00000E06220722082209220A220B220C224E
:10195E0005C005F006C006F007C007F008C008F085
:10196E0009C009F00AC00AF00BC00BF00CC00CF055
:10197E0012000001A2A1C6EF0CF0C8EF0CF0D2EFDE
:10198E000CF019C010F01AC011F017C012F018C0E8
:10199E0013F0C1EC10F01CBED7EF0CF0D9EF0CF029
:1019AE00DFEF0CF01BC020F01CC021F0E3EF0CF0B9
:1019BE00000E216E000E206E000E1F6E000E1E6EAB
:1019CE00F5EF0CF0000E086E200E076E17C009F032
:1019DE0018C00AF036EC0EF01E4A1F2A20501E5C6C
:1019EE001F50800A1D6E2150800A1D58D8A002EF8C
:1019FE000DF004EF0DF0E9EF0CF00001A2B10AEFCB
:101A0E000DF00CEF0DF016EF0DF019C010F01AC01E
:101A1E0011F017C012F018C013F0C1EC10F019C07D
:101A2E0005F01AC006F066EC11F020500524176E72
:101A3E0021500620186E12009FEC12F00009D8B447
:101A4E002BEF0DF02DEF0DF068EF0DF03BEF0DF0DD
:101A5E0012EC13F084EF0DF00EEC13F084EF0DF09A
:101A6E0006EC13F084EF0DF072C00EF073C00FF0A1
:101A7E0002D84CEF0DF00500FA6E00016651FD6EB6
:101A8E006751FE6EFF6AFA501200106E116A115005
:101A9E00000AD8B455EF0DF037EF0DF01050010AD3
:101AAE00D8B437EF0DF0030AD8B42FEF0DF0010ABA
:101ABE00D8B433EF0DF0070AD8B437EF0DF037EF87
:101ACE000DF0000183917DC0D9FF7EC0DAFF7D4B02
:101ADE007E2BDF5016EC13F000017F07D8A0800795
:101AEE007F518011D8A47EEF0DF080EF0DF083EFC3
:101AFE000DF0060E84EF0DF0030E1200840E582426
:101B0E00D96EDA6A000EDA22000EDF6EABA492EF07
:101B1E000DF094EF0DF0A8EF0DF0840E5824D96E51
:101B2E00DA6A000EDA220001DF8202D8A8EF0DF089
:101B3E000500FA6EE751FD6EE851FE6EFF6AFA502F
:101B4E001200ABA2ADEF0DF0AFEF0DF0C3EF0DF045
:101B5E00840E5824D96EDA6A000EDA220001DF8470
:101B6E0002D8C3EF0DF00500FA6EE551FD6EE65199
:101B7E00FE6EFF6AFA501200840E5824D96EDA6A8D
:101B8E00000EDA22DF50D8B4CFEF0DF0D1EF0DF00A
:101B9E00E0EF0DF002D8DEEF0DF00500FA6E000159
:101BAE00E351FD6EE451FE6EFF6AFA501200E2EF51
:101BBE000DF007EC12F012002AEC13F07DC0D9FFE5
:101BCE007EC0DAFFDF6E00017D4B7E2B7F07D8A033
:101BDE0080077F518011D8B4F7EF0DF0F9EF0DF0BB
:101BEE00FEEF0DF01AEC13F0050E35EF0EF08387B5
:101BFE0009EF0EF0FAEC12F035EF0EF0FEEC12F0EB
:101C0E0035EF0EF06CC00EF06DC00FF002D819EF6C
:101C1E000EF00500FA6E6051FD6E6151FE6EFF6AA8
:101C2E00FA501200106E116A1150000AD8B422EF49
:101C3E000EF005EF0EF01050010AD8B405EF0EF0BD
:101C4E00030AD8B401EF0EF0010AD8B401EF0EF07A
:101C5E00070AD8B405EF0EF005EF0EF0120009508A
:101C6E000A10D8B43DEF0EF03FEF0EF048EF0EF035
:101C7E0009500A10D8A446EF0EF048EF0EF04DEFC3
:101C8E000EF00750D3EC12F080EF0EF020EE04F0C1
:101C9E000950D9260A50DA22DE50DE10D8B45AEF97
:101CAE000EF05CEF0EF077EF0EF020EE04F0095020
:101CBE00D9260A50DA2210EE02F00950E1260A5017
:101CCE00E222DE50E65CE650800A0F6EDE50800A9D
:101CDE000F58D8B075EF0EF077EF0EF080EF0EF0D4
:101CEE0020EE02F00950D9260A50DA22DE2A000E22
:101CFE00DD221200056E010E066E000183B58AEF1D
:101D0E000EF08CEF0EF0C6EF0EF005C07CF0839354
:101D1E00838583910E0E816F010E7B6FF40E7A6FA9
:101D2E008387600E606F260E616F000E6C6F000E63
:101D3E006D6F600E626F260E636F000E6E6F000E7B
:101D4E006F6F600E646F260E656F000E706F000E63
:101D5E00716F600E666F260E676F000E726F000E4B
:101D6E00736F5C0E686F260E696F000E746F000E37
:101D7E00756F3CEC13F042EC12F0000E066E06503E
:101D8E0012001B6E000E1D6E000E1C6E1B5081ECA1
:101D9E000EF00009D8B4D6EF0EF0D8EF0EF0CDEF5E
:101DAE000EF05E0E0A6E230E0B6E1C0E0C6E000EE7
:101DBE000D6E7EEC12F0160E056E000E066E000E07
:101DCE00086E010E076E30EC12F0000E0A6E000E59
:101DDE000B6E000E0C6E000E0D6E72EC12F0F6EC29
:101DEE0012F0F1EC11F0E806D8B400EF0FF002EFAC
:101DFE000FF0F8EF0EF01DC018F01C50196E1850B1
:101E0E00166E19C017F01200000183871CEF0FF039
:101E1E000AEC13F048EF0FF028EC13F0030E48EF26
:101E2E000FF006EC13F048EF0FF06CC00EF06DC023
:101E3E000FF002D82CEF0FF00500FA6E6051FD6E18
:101E4E006151FE6EFF6AFA501200106E116A115047
:101E5E00000AD8B435EF0FF018EF0FF01050010A4A
:101E6E00D8B418EF0FF0030AD8B40FEF0FF0010A31
:101E7E00D8B40FEF0FF0070AD8B413EF0FF018EF26
:101E8E000FF01200096E05500610D8B451EF0FF086
:101E9E0053EF0FF06DEF0FF00950020D600EF324AB
:101EAE00D96E000EF420DA6E05C0DEFF06C0DDFF2F
:101EBE000950020D6C0EF324D96E000EF420DA6E6A
:101ECE0007C0DEFF08C0DDFF85EF0FF00950020DE1
:101EDE00600EF324D96E000EF420DA6E600EDE6E04
:101EEE00260EDD6E0950020D6C0EF324D96E000E17
:101EFE00F420DA6E000EDE6E000EDD6E12009D9A7C
:101F0E000A0E056E1B0E066EE2EC12F09D980A0E7E
:101F1E00056E220E066EDDEC12F0080EB86E900EF7
:101F2E00AB6E240EAC6ECF0EAF6E000EB06E7C0E8E
:101F3E00056E260E066EECEC12F0400E056E260EA9
:101F4E00066EE7EC12F0460E056E260E066EF1ECEE
:101F5E0012F0000E0001A46F000E5A6E000E596EA4
:101F6E00080EED6F000E586E000E576E000E566E78
:101F7E009D8A12003CEC13F0000183A1C9EF0FF013
:101F8E00CBEF0FF0D8EF0FF09FEC12F00009D8B4A2
:101F9E00D3EF0FF0D5EF0FF0D8EF0FF00F0E0001CB
:101FAE00816F00018151020D010EF324F66E100EA9
:101FBE00F420F76EF86A000EF8220900F5CF12F041
:101FCE000900F5CF13F002D8F6EF0FF00500FA6E08
:101FDE001250FD6E1350FE6EFF6AFA501200000191
:101FEE00816F1200186E185081EC0EF00009D8B4F3
:101FFE0003EF10F005EF10F0FAEF0FF0320E0A6E4D
:10200E00230E0B6E170E0C6E000E0D6E7EEC12F084
:10201E00160E056E000E066E000E086E010E076E91
:10202E0030EC12F0000E0A6E000E0B6E000E0C6EEF
:10203E00000E0D6E72EC12F0F6EC12F0F1EC11F0E7
:10204E00E806D8B42DEF10F02FEF10F025EF10F0BA
:10205E00120000018391020E826F3EEF10F00AEC27
:10206E0013F062EF10F006EC13F062EF10F070C098
:10207E000EF071C00FF002D84EEF10F00500FA6EA0
:10208E006451FD6E6551FE6EFF6AFA501200106EBD
:10209E00116A1150000AD8B457EF10F03AEF10F051
:1020AE001050020AD8B436EF10F0010AD8B436EF49
:1020BE0010F03AEF10F01200C7C0CBF0C8C0CCF051
:1020CE00000E00019D6F000E9C6F81EF10F0C5C0D9
:1020DE0046F0C6C047F0CB0E486E000E496EC9C022
:1020EE004AF0CAC04BF090EC09F0465000019C2714
:1020FE0047509D23CBC0F6FFCCC0F7FFF86A08000F
:10210E00F5500009D8A48EEF10F090EF10F06EEF9E
:10211E0010F09CC0C5F09DC0C6F01200056E000107
:10212E00ED51D8B49DEF10F09FEF10F096EF10F038
:10213E009DB8A4EF10F0A6EF10F0AAEF10F005C0B6
:10214E00ADFFBFEF10F09D98940E5A24D96EDA6A47
:10215E00000EDA2205C0DFFF5A2A070E5A64BAEFC4
:10216E0010F0BCEF10F0BEEF10F0000E5A6EED073F
:10217E009D881200000E166E000E156ED2EF10F036
:10218E0014C007F0086A12C009F013C00AF036EC4A
:10219E000EF0154A162A15501024D96E165011201D
:1021AE00DA6EDF50146E1450D8A4E0EF10F0E2EFA8
:1021BE0010F0C7EF10F01200146E010E156E000134
:1021CE0083B3ECEF10F0EEEF10F003EF11F083831A
:1021DE00000E156E1450D8B4F7EF10F0F9EF10F0A2
:1021EE00FDEF10F0010E816FFFEF10F0020E816F08
:1021FE0036EC13F063EC12F015501200080E0001CD
:10220E00ED610CEF11F00EEF11F024EF11F0940EC2
:10221E005924D96EDA6A000EDA22DF50AD6E592AD1
:10222E00070E59641DEF11F01FEF11F021EF11F0A1
:10223E00000E596EED2B25EF11F09D98120018BE71
:10224E0033EF11F0185006E11704D8B031EF11F04A
:10225E0033EF11F041EF11F017C019F018C01AF05A
:10226E00191E1A1E194A1A2A19C017F01AC018F088
:10227E0045EF11F017C017F018C018F0120020EE3D
:10228E0002F00E50D9260F50DA22DECF05F0DDCF48
:10229E0006F00EC0D9FF0FC0DAFFDECF07F0DDCF9C
:1022AE0008F030EC12F0000E0A6E000E0B6E000EEF
:1022BE000C6E000E0D6E7EEC12F0020E120005C0BA
:1022CE0007F006C008F06EEF11F0054A062A05C0A9
:1022DE00D9FF06C0DAFFDF50D8A478EF11F07AEFFD
:1022EE0011F06CEF11F00750055C056E08500658A2
:1022FE00066E1200000E8D6E000E8C6E000E896E34
:10230E00000E8A6E000E8B6E070E966E92689368A4
:10231E00BF0E946E95687E681F0E7F6E000E7C6EEB
:10232E00F18E12000EC005F00FC006F0000E086E02
:10233E00010E076E30EC12F0000E0A6E000E0B6EE0
:10234E00000E0C6E000E0D6E7EEC12F0040E1200DE
:10235E000EC005F00FC006F0000E086E020E076EDE
:10236E0030EC12F0000E0A6E000E0B6E000E0C6EAC
:10237E00000E0D6E7EEC12F0020E12000EC005F075
:10238E000FC006F0000E086E010E076E30EC12F054
:10239E00000E0A6E000E0B6E000E0C6E000E0D6E11
:1023AE007EEC12F0020E12000EC005F00FC006F009
:1023BE00000E086E020E076E30EC12F0000E0A6E62
:1023CE00000E0B6E000E0C6E000E0D6E7EEC12F0FB
:1023DE00040E1200010E056E000183B3F9EF11F029
:1023EE00FBEF11F005EF12F083957C693CEC13F0D6
:1023FE0038EC13F03AEC13F082C005F005501200E1
:10240E008C0E5824D96EDA6A000EDA22AECFDFFFB8
:10241E00582A070E586416EF12F018EF12F01AEF42
:10242E0012F0000E586E562A1200CF0E0001D36F16
:10243E00000ED46F000EC56F000EC66FCDC0C7F074
:10244E00CEC0C8F0D30EC96F000ECA6F63EC10F089
:10245E001200000183A736EF12F038EF12F041EFB1
:10246E0012F005C07DF006C07EF007C07FF008C0F8
:10247E0080F083971200C6BA47EF12F049EF12F0C0
:10248E0052EF12F0000EC76E080EC66E000EC56E2D
:10249E00130EC86EC68A120000EE60F0650EEE6A6C
:1024AE00E806FDE15A6A596A586A576A566A5B909D
:1024BE005B9200016FEF0AF069EF12F0A9EC12F0D7
:1024CE00C1EC0FF0000183B36FEF12F071EF12F059
:1024DE0065EF12F012000AC005F00BC006F00CC03A
:1024EE0007F00DC008F0020E49EC0FF012000AC002
:1024FE0005F00BC006F00CC007F00DC008F0000E82
:10250E0049EC0FF0120026EC13F095EC12F081EC72
:10251E0011F0D8EC12F086EC0FF01200000EC76E20
:10252E00080EC66E000EC56E130EC86EC69A120049
:10253E00C5BCA4EF12F0A7EF12F0010EA8EF12F037
:10254E00000E12009EA6AEEF12F0B0EF12F0A9EF41
:10255E0012F01200000183817C517C2516EC13F0E1
:10256E00030E120000018381D8807C3516EC13F027
:10257E00050E120000018393000E826F0E0E1200E4
:10258E00000183912CEC13F0040E120000018393D2
:10259E00000E826F0E0E1200066E065095EC10F0B5
:1025AE001200600ED36E000E9B6E120005C0EBF093
:1025BE0006C0ECF0120005C0E9F006C0EAF0120009
:1025CE0005C0E5F006C0E6F0120005C0E7F006C053
:1025DE00E8F0120005C0E3F006C0E4F01200000EB1
:1025EE00E3EC10F012001DEC13F0090E12001DECBE
:1025FE0013F00A0E12001AEC13F0050E120032EC54
:10260E0013F0000E120034EC13F0010E120034EC35
:10261E0013F0020E120034EC13F0010E1200056ED0
:10262E0005C0C9FF1200C59AC5881200C58AC588A3
:10263E001200AB98AB88120007EC12F01200D09E7D
:10264E0012009E861200C9501200C5861200050E99
:10265E001200010E1200C5841200C5821200C58040
:10266E0012009D961200C69A12009E96120012003B
:020000040020DA
:08000000FFFFFFFFFFFFFFFF00
:020000040030CA
:0E000000FF081F1EFF0B81FF0FC00FE00F4017
:00000001FF
